S01A0000436F7079206F6620736F632D656D7074795F342E733337F6
S21400000000000120F1110000270B0000270B000064
S214000010270B0000270B0000270B0000270B000013
S214000020270B0000270B0000270B0000270B000003
S214000030270B0000270B0000270B0000270B0000F3
S214000040270B00005D620000270B0000270B000056
S214000050315A0000C9620000696200008162000037
S21400006061620000270B0000270B0000270B000032
S214000070270B0000270B0000270B0000270B0000B3
S214000080270B0000270B0000270B0000270B0000A3
S214000090270B0000270B0000270B0000270B000093
S2140000A0270B0000270B0000270B0000270B000083
S2140000B0CD62000065620000270B00000D630000A3
S2140000C0270B00002D4C0000270B0000270B00001C
S2140000D0270B0000270B0000270B0000270B000053
S2140000E0270B0000270B0000270B0000270B000043
S2140000F0270B0000270B0000270B0000270B000033
S214000100270B0000270B0000270B000010B5054C3E
S214000110237833B9044B13B10448AFF300800123AE
S214000120237010BDB800002000000000BCA900002D
S21400013008B5034B1BB103490348AFF3008008BD65
S21400014000000000BC000020BCA90000154B002BDE
S21400015008BF134B9D46A3F5803A00218B460F46F9
S2140001601348144A121A08F0DEFC0F4B002B00D07E
S21400017098470E4B002B00D0984700200021040023
S2140001800D000D48002802D00C48AFF3008008F0A0
S2140001909BFC2000290002F0EBFA08F081FC00BF6F
S2140001A00000080000000120000000000000000021
S2140001B0B80000203C2A00200000000000000000DC
S2140001C037B50446684680E8060003C8251D85E85E
S2140001D005002373069B2361BDF81C30A382002311
S2140001E02360084B1A6812B91C6004E00A461168BE
S2140001F00029FBD114609888013080B2988003B043
S21400020030BD00BFD006002007B503790193054A2C
S2140002100368009306CA02230830FFF7D1FF03B035
S2140002205DF804FBB08D00000A4B40F2011210B5D9
S2140002301A604FF0FF329A6001225A6008441A464C
S214000240814202D1D869C04310BD11F8014B9461B8
S214000250F6E700BF00C0014070B5134C2268A2F15B
S2140002607E63A3F58433B3F5104FE0B005460E4623
S21400027017D2126BA2F17E63A3F58433B3F5104F49
S2140002800FD2536A69464FF4C0720020984730B9BF
S21400029023681B6B3246DB6A29466846984760B07F
S2140002A070BD4FF40170FAE72808E10F0F4A10B44A
S2140002B01468A4F17E62A2F58432B2F5104F0B46A4
S2140002C00FD2246BA4F17E62A2F58432B2F5104FF1
S2140002D007D22469064A0146A44600205DF8044B6E
S2140002E060474FF481705DF8044B70472808E10FB3
S2140002F02007002070B51C4D2A68A2F17E63A3F586
S2140003008433B3F5104FE0B004D34FF401742046A5
S21400031060B070BD136B002BF7D05B6A4FF4C072F1
S21400032069460020984704460028F0D140F201268E
S2140003302A68A2F17E63A3F58433B3F5104FE4D2A6
S214000340126BA2F17E63A3F58433B3F5104FDCD2B3
S214000350936A002168469847B042E9D040F20323EA
S214000360984218BF0446D2E72808E10F154B02282A
S214000370D3F8803113D0032814D0012814BFDBB281
S214000380C3F307231B0323F47042B1B9BAB90E496D
S214000390CA6E22F470421343CB6601207047C3F343
S2140003A00743EFE71B0EEDE70749D1F8EC2022F4F0
S2140003B070421343C1F8EC30EFE7002AF4D0002077
S2140003C0704700BFB081E00F00300E40304B1A6F10
S2140003D0D96CC90702F0070242D5012A40D9132872
S2140003E051D9143813288CBF102308232849013B01
S2140003F0CA6C180322F47F4240EA03231343CB64FB
S214000400244BCA6C1B88C2F303222833013202EB4A
S214000410820003EB5303B3FBF0F3C86C013B072BDE
S21400042020F0EE6028BF072340F4801040EA036304
S214000430CB64194BB3F90030002B10DB283350087F
S21400044000EB420203EB5303B3FBF2F30A6D072BF8
S21400045028BF072322F0700242EA03130B65704799
S214000460DB6CD90706D4012A04D809280BD90A3828
S2140004700928B8E7064BDB6C13F00103B6D0012A57
S21400048003D82728AFE70423B0E70023AEE700BF72
S21400049000300E40EE060020F006002042EA03235D
S2140004A040F2011293422BD0B3F5817F08D2012B84
S2140004B01DD030D3B3F5807F31D0002213461CE028
S2140004C040F20122934222D006D8B3F5007FF4D141
S2140004D0174BD3F870310DE0B3F5407F23D040F2D0
S2140004E001329342E9D1124BD3F878310BE0104B2E
S2140004F0D3F87431C3F30722DBB203600A60704797
S2140005000B4BD3F874311A0EC3F30743F5E7084BC9
S214000510D3F87831EEE7064BD3F86C31EAE7044BB4
S214000520D3F86C31EFE7024BD3F87031EBE700BF3E
S214000530B081E00F044B1B685B0603D4034A1368C4
S214000540002BFCD1704700BF3C300E40C800C643AD
S214000550C0F30313013B092B2AD8DFE803F0050B91
S2140005600F1929291F23374B274BD3F80001C0F357
S21400057004207047244BD3F81401F8E7224BD3F835
S2140005800001C0F30060431C01209840013870470A
S2140005901D4BD3F80C01C0F3082070471A4BD3F854
S2140005A00801F8E7194B984204D0194B984207D037
S2140005B000207047144BD3F8203103F00F03E3E715
S2140005C0114BD3F82031C3F30113DDE7114B9842EA
S2140005D00CD003F5B01303F580539842E8D10A4BCC
S2140005E0D3F82801C0F30120031DCDE7064BD3F84E
S2140005F02831E8E7084B9842DAD1034BD3F83001AC
S21400060000F00300704700BF00400E408006160052
S21400061080162E0090171A00A00914000E4B30B555
S2140006200E4C5B68C9B2002304EBC30215798D42F9
S21400063003D154F8335085420BD20133052BF3D146
S214000640032205494B6823F0407343EA02634B607C
S21400065030BD5279F5E700BF00000E40BC8C0000AC
S21400066038B5054C41F67133256C2364FFF7D6FF89
S2140006700DB10023236438BD00000E400C4B984299
S21400068010D90C4B984210D9022201230A490B605C
S2140006900A49D1F8003123F0807343EA0263C1F8B7
S2140006A00031704700221346F0E70122FBE700BF47
S2140006B00048E8010090D0034000C84300400E40C8
S2140006C0094B30B5196C5C6C0022234642EA0104E3
S2140006D0220C82701A0A210AC2701A0C1B0E0470B1
S2140006E041700271437130BDB081E00F214BD3F8E9
S2140006F0F82102401CD170B4D3F8FC51D3F8006244
S21400070003F5FC74641BA410022C12D0032C29D011
S214000710012C1AD0184A52682A6005F10C0268604B
S214000720C3F8FC21A96033680C33336070BC704793
S2140007307047114A1C1D52682A60686004221960BE
S214000740C3F8FC41326070BC70470B4C1A466468B4
S2140007502C6042F8080B08205960C3F8FC21306072
S21400076070BC7047044C6468A960C5E90040C3F8D3
S214000770FC31E7E7C4230020001000E0837DDB07A0
S21400078001D5808A7047D0E901239B1A44BF828A2C
S2140007909B1898B270470000044B5A6D22B95865F2
S2140007A0A3F85810012070470020704770060020FC
S2140007B0D0B50C4CE38C0A20584307F0D5FE06460D
S2140007C0A08C0F4607F0D0FE0022074B07F036FF3E
S2140007D002460B463046394608F05AF808F040F90B
S2140007E02083D0BD700600200000F43F084A10B5F4
S2140007F0146840F2E243584303FB0141536800F596
S214000800807001EB500118441160506010BD00BFAD
S2140008107006002070B500228AB01346D91003F087
S2140008200704415C2141CC0741BF0AA9891801325F
S21400083001F8283C0133252BF0D10E4D0023D910AA
S21400084003F00704415C2141C90707D5E91881F880
S2140008502A300133252BF2D10AB070BD0AAE93FBC5
S214000860F2F102FB11313144EC1811F8286C84F8CF
S2140008702A60EEE770060020024B986C80B2800279
S214000880704700BFB081E00F7FB50E4B02466D4645
S21400089003F11006186859682C4603C40833B3429F
S2140008A02546F7D1531E04A90F3211F8014D13F84F
S2140008B0010F844204D19342F7D1012004B070BDE9
S2140008C00020FBE7A08B000070B5154D286810BB14
S2140008D0144B154CE41A154B1C4424F4FF6424F006
S2140008E00704FFF7C9FF844214D2666BA6B1FFF770
S2140008F0C3FF864210D2FFF7BFFF06F140038342D4
S2140009000AD83046FFF7C0FF30B1F36933F008036A
S21400091002D02C60286870BD04F50064E1E700BFD3
S2140009203401002010000020B400002007B20000B0
S214000930BFF34F8F0549064BCA6802F4E0621343C3
S214000940CB60BFF34F8F00BFFDE700BF00ED00E0B8
S2140009500400FA050A4B1A68A2F17E63A3F58433F5
S214000960B3F5104F09D2126BA2F17E63A3F5843360
S214000970B3F5104F01D2D36B184740F20110704701
S2140009802808E10F0D4B10B41C68A4F17E63A3F594
S2140009908433B3F5104F0BD2246BA4F17E63A3F51A
S2140009A08433B3F5104F03D2A36B5DF8044B18479E
S2140009B040F201105DF8044B704700BF2808E10FB5
S2140009C0064B1A68A2F17E63A3F58433B3F5104F85
S2140009D001D2536A18470020704700BF2808E10F6D
S2140009E0114B196801F1704303F5F813B3F5006F66
S2140009F00CD20E4B1B68A3F17E62A2F58432B2F5D0
S214000A00104F03D209680A4A914203D000230370AC
S214000A10836070471968074A9142F7D10122027035
S214000A209A6842609B69F3E72800E10F2808E10F07
S214000A30AD1007B007B0CD5E10B50C4630B904480F
S214000A40FFF7CEFF034B23600423A380002010BDD6
S214000A50900100209401002010B508B3114B1A68CD
S214000A60918881421CD39988814281BF01211268F6
S214000A7099809A6099889A6800242AB904B19A6085
S214000A804FF6FF71998009E0884204D00131126860
S214000A9089B20124F1E70CB198809A60104610BD27
S214000AA00022FBE7D806002037B50D461446FFF7B0
S214000AB0D3FFD8B10369828A63B14FF6FE718A42CA
S214000AC008D100200090ADF804006946984738B178
S214000AD003B030BD2B602280286848B92080F7E735
S214000AE0009B2B60BDF804302380F5E70120EFE77C
S214000AF00020EDE737B50D461446FFF7ADFF70B1A1
S214000B00036973B1818A4FF6FE72914209D100954E
S214000B10ADF8044069460120984703B030BD012077
S214000B20FBE70E20F9E7FEE737B50379124A0333F1
S214000B300446019300F14403009306CA02231430CE
S214000B40FFF73EFB228A0192E268237A009204F1C4
S214000B502C0094E80600FFF733FB237AA4F8450040
S214000B60054684F844302279216804F1470007F0EE
S214000B70CFFF284603B030BDA88D000070B50E4CE0
S214000B800E4B04F1100206460D4692E80300183498
S214000B9083E803001846FFF737FB094B94E8030089
S214000BA002221A7283E80300DE601D821846BDE842
S214000BB07040FFF7B9BF00BFA08B00005C23002089
S214000BC0B80400202DE9F041054616468846FFF792
S214000BD0D5FDAB8A181A80B2864228BF064637462D
S214000BE05FB93EB1D5E901329A4202BFAB7D43F010
S214000BF00103AB753046BDE8F081AB8A2C68A86867
S214000C001C44241AA3B2BB428CBF3C46A4B2224664
S214000C10414607F07DFFAB682968AA8A23440A4448
S214000C20A0449342A7EB0404AB60A7B228BFA96018
S214000C30D6E770B5044615461E4611B3FFF79EFD6F
S214000C40A38A181A80B2012829D9E37D63B1E36824
S214000C50628A1A70120A07D02068A18A01330144FA
S214000C608B4228BF0346F4E700236382A368E36051
S214000C70022204F112012046FFF7A4FFE37D0133B0
S214000C80E375324629462046FFF79CFF638A0344F5
S214000C906382E37D13B9238A0344238270BD002058
S214000CA0FCE72DE9F041164605468846FFF766FD47
S214000CB0864228BF0646B6B237464FB92EB1AB7D40
S214000CC0DA0744BF23F00103AB753046BDE8F08178
S214000CD0AB8A2C6869681C44641AA3B2BB428CBFFA
S214000CE03C46A4B22246404607F012FF6B682968CD
S214000CF0AA8A23440A44A0449342A7EB04046B60E8
S214000D00A7B228BF6960D8E770B51E46038A0446B6
S214000D101546EBB9C27DDAB10123013A0B70C275F4
S214000D2000F110010222FFF7BCFFE37D9BB1228A8F
S214000D30B24228BF324629462046FFF7B2FF238A32
S214000D401B1A2382E37D13B9638A1B1A638270BD64
S214000D5000230B70EBE7638A2382E8E770B50D4645
S214000D60A8B9FFF7B1FD446BFFF7AEFD58B12346B7
S214000D70084C03F1400618685968224603C2083337
S214000D80B3421446F7D1044B2B600423AB800020FB
S214000D9070BD00BF38010020580100202DE9F04347
S214000DA085B088466946044681E80C000C9EBDF86E
S214000DB03470FFF751FE4FF6FE7905460DB14445F7
S214000DC005D94FF6FF74204605B0BDE8F0832B7AB0
S214000DD09DF804209A421ED10099686807F0ABFE81
S214000DE0C8B9002EEFD02B69AA8AA3B14A4509D10B
S214000DF00290ADF80C0002A9984760B9029BBDF8B6
S214000E000C2043B1974206D13A461946304607F0C1
S214000E1092FE0028D7D001342D68A4B2CEE7000099
S214000E20F0B5354C85B011464FF486701F46164611
S214000E30FFF75CFC236925462BB94FF48370FFF758
S214000E4055FC05B0F0BD002F08BF082E21D16A461C
S214000E500321206802F00EFE636860615B7A2376E9
S214000E609DF80030DA1F53425341627E63F300025E
S214000E70029BE361BDF802306276638304F11801D9
S214000E8023690220984701220021206802F0FAFD1B
S214000E90D7E7002F08BFB6F5800F03D10021012049
S214000EA09847CEE706F440520023134309D04FF488
S214000EB080714FF48170FFF719FC2369002103202D
S214000EC0EEE706F4A0620023134308D001214FF496
S214000ED08170FFF70BFC2B690021FF20E0E706F08E
S214000EE0A0520023134319BF012140F201103146DE
S214000EF04FF48370EDE700BFB02100207FB50223DA
S214000F008DF80C30064B5A8B5969186803320292DA
S214000F1001AA02F0B3FD019807B05DF804FB00BF1C
S214000F20B021002008B500214FF48570FFF7DEFBE6
S214000F30044B00221A61186801220321BDE808400C
S214000F4002F00CBBB021002013B50D4B0D4C1B88D6
S214000F50ADF804300128ADF8003004BF02238DF848
S214000F60043001A908BF0423206808BF8DF80030AC
S214000F7002F0D8FC6946206802F0F4FC02B010BD0E
S214000F80C08B0000B021002037B5124C437A606059
S214000F9000220092D0E90021206802F0F4FD238CA4
S214000FA0DB050CD563680C4D1A7A2978914206D079
S214000FB0012A06D0022A08D063681B7A2B7003B079
S214000FC030BD206802F0A5FDF6E7206802F0B4FD0B
S214000FD0F2E700BFB0210020CD0600207FB51A4CF6
S214000FE01948637A0133DBB2272B88BF2523637247
S214000FF0FFF7CAFF257B627C144C154920684FF426
S2140010000073023202F016FD6368124A5B7A05F03E
S21400101001052846D65CFFF797FF42F210730022C0
S2140010200293009201238DF80C30314602AB206803
S21400103002F098FA28B1FFF775FFFFF7CFFF04B06C
S21400104070BD054B2361FAE7D4000020B0210020D4
S214001050E40000207C8D00009518000038B50D4691
S21400106011462C68A41A2246014407F073FD2C6032
S21400107038BD00002DE9F843514E524C524FA41B88
S214001080524E3B68344424F4FF64C51A24F0070427
S2140010904F48A5420560B946804672D313445E1990
S2140010A0FFF7EAFBA0F5805086426AD838688618B3
S2140010B0B6F5806F03D9474B82221A705FE0464F21
S2140010C0384407F025FD454BC9F800601A681AB980
S2140010D0332E54D97A6B1A601B689D4205EB0604C2
S2140010E01DD8A3421BD203F11002A24247D85B1BB5
S2140010F01F443B4A3B4607F1100153F8040B42F8E5
S214001100040B8B42F9D13648FFF7BEFB10B9314BC2
S2140011108422D2E71022FF21384607F004FD314F23
S21400112031483B6806F00306A41B044053B9284028
S214001130C0F500612144FFF70DFC3C6040B1254B33
S2140011408522BAE7A34203D2E11A03F50060F2E76C
S214001150D9F800202049D8F80000921BFFF712FCAF
S214001160D9F80020D8F800301749921B04461344DB
S2140011701948C8F80030FFF771FF002CDFD1BDE832
S214001180F8831A4B5B68B3F1827F124B12D2187841
S2140011900A4400268A4203D1002EF0D01870EEE7EB
S2140011A011F8017BFF2FF5D00126A54234BF87201A
S2140011B08320EFE7A54234BF872283227DE700BF66
S2140011C010000020B4000020A821002007B2000074
S2140011D0280B0020250B0020A81D0020A41D0020A1
S2140011E0941D0020AC21002000F8FFFF9C01002089
S2140011F008B50A4B0A4A9A60D3F88820094942F48F
S2140012007002C3F88820084B084A8B4201D3FEF7C9
S2140012109DFF52F8040F43F8040BF6E700ED00E0DC
S21400122000000000B400002010000020C4A9000048
S214001230EFF3108072B670470B4A536911699B0032
S21400124003F03C03C1F381110B438370136903F071
S2140012503F0343709369D26903F0F003C2F30312AD
S21400126013430370704700BFD0FF0FE0054A064BDC
S2140012701B68136F23F007031843044B1067188886
S214001280FFF7A4B800300E408009C643EC060020E5
S214001290EFF3108072B6704700B962B67047000070
S2140012A010B5034CA01DFFF7B5FA0023236010BD50
S2140012B0741D002010B5094CB4F80710A079FFF78C
S2140012C095FAA368064AB4F80D10D184C3F30F2329
S2140012D09384FFF76DFA0023236010BD741D002071
S2140012E070060020034B044A9979117500221A6093
S2140012F0704700BF741D002070060020FFF7CCBFAB
S2140013002DE9F0410D4F06460D4614460CB9BDE8D2
S214001310F081EFF3108872B623462A4631463846E7
S214001320FFF787FC03464046FFF7B6FF002BEDD0DD
S214001330E41AA4B21D440026E8E700BF581C0020AB
S21400134013B5002301F10804ADF80430ADF806002B
S21400135021461A46083151F8100C70B90BB1ADF899
S214001360042004220DEB020101200834FFF7C8FF19
S21400137054F8101C39B902B010BD51F80C3C1A4490
S21400138092B20123E6E734F80C2C0020EDE70000CB
S2140013907FB500230130CDE90101CDE9043369466C
S2140013A0044B009304200392FFF7CAFF07B05DF8D2
S2140013B004FB00BF7E0100200E4A1368A3F17E6383
S2140013C0A3F58433B3F5104F10B50ED2EFF31080AB
S2140013D072B6094900240B780C70FFF75DFF3BB12D
S2140013E01368BDE810401B6A18474FF4817010BDA3
S2140013F01846FCE72808E10F711D002001282DE99A
S214001400F34740F030818B88012B40F02E810B682B
S2140014101B7813BB974A984C1360984A1360984AF7
S2140014201360984A1360984A1360984A1370984A53
S2140014301360984A13602278022A01D1FFF7BCFF96
S21400144001232370944B00241C70944B1C70944B07
S2140014501C70204602B0BDE8F087032B40F0F080F9
S2140014608F4B854E1C78002C4AD13378002B00F029
S214001470DB80864B1B78082B7AD17E4A1368904611
S2140014808BB9884D2B68A3F17E63A3F58433B3F53F
S214001490104F50D34FF4017041F20803984200F009
S2140014A0C58080242CE013F003071ABFC7F1040799
S2140014B0FFB2274603EB070ABAF5806F00F2BA8040
S2140014C079483A461844FF2107F02DFB704B6B4ACB
S2140014D0C8F800A015681A6815445544DFF8A8A196
S2140014E025F4FF65DAF8000025F0070585429946E1
S2140014F00BD9291A00F50060FFF72CFA18B18524DD
S21400150000233370A5E7CAF80050D8F80010D9F8C1
S2140015100000FEF7CBFED9F80030D8F80020554979
S21400152013440546DF1B6048C9F80070FFF796FDB8
S214001530002DA6D0E3E7FEF7DDFE0028ACD12A6832
S2140015400190A2F17E63A3F58433B3F5104F0BD25E
S214001550126BA2F17E63A3F58433B3F5104F03D26A
S2140015609369012101A898474C4B01221A70C7E7DE
S214001570002B5DD0484B1B78002B92D0454F3B6824
S21400158043B9404B494918681022FFF7FBF9002879
S214001590B6D0B4E713F003021CBFC2F10402D2B205
S2140015A09D18B5F5806F45D84148FF21184407F0CF
S2140015B0BAFA404A404B324840493D609B1A404A7E
S2140015C0134402680B409342804635D81544FFF713
S2140015D053F9A0F58050854230D83D68DFF8A890D2
S2140015E02A44D9F8000002EA0105854208D9291ADA
S2140015F000F50060FFF7AEF9002880D1C9F800506A
S2140016003A682B49D8F80000FFF7BCF9D8F8003044
S2140016103A682049054613442548C8F80030FFF7C5
S2140016201DFD002DADD06AE7812469E7862467E7B3
S214001630842465E7822463E7872461E783245FE7E1
S214001640042B14D11F4C13230221637020462170F3
S214001650FFF7A2F81C4A1D4B128905329A801C4AD5
S2140016601A6062789A710024F3E60D24F1E60624E7
S214001670EFE600BF200B0020260B0020BC23002036
S214001680280B0020A41D0020AC210020780100209B
S2140016902C0B0020A8210020240B00208501002010
S2140016A0250B00202808E10F20070020941D0020AD
S2140016B0A81D002010000020B400002000F8FFFF46
S2140016C007B20000881D002070060020741D002050
S2140016D0911D00000E4A1368A3F17E63A3F58433C0
S2140016E0B3F5104F10B50ED2EFF3108072B6094B5B
S2140016F0012419781C70FFF7CFFD39B91368BDE8CF
S2140017001040DB6918474FF4817010BD0020FCE7DD
S2140017102808E10F711D0020134A144C08B5937E6B
S21400172043F040039376124B00221A70114B1B783D
S2140017304FF000556BB1FFF7CDFF0F4B2B60012329
S214001740A360236823F4E06343F480632360FFF719
S214001750EFF82B600123A360236823F4E06343F4CF
S21400176080632360FFF7E4F87006002000500E4008
S214001770CC0600208501002002020FF010B5134CA5
S214001780A37E5B0621D4FFF7CDFB2168A38C40F235
S214001790E24202FB0312226094F84F10A27A252040
S2140017A00A4492FBF0F100FB1122A2722289013258
S2140017B0228162680A2101FB03236360238B5A1E81
S2140017C0228313B90820FFF7A7FF10BD700600207C
S2140017D02DE9FF41294C40F601002189FEF786FFDE
S2140017E0A37E13F0400242D143F0010303F0FD0351
S2140017F062F38203224AA376136823B12189928872
S214001800914200D19847A37A1E4F1F48234493F86D
S2140018102A306375FFF7B8FBD4E900547B681B4A8F
S2140018205B7A64082E1B12F803800120FFF78CFBFE
S21400183064350096002625446A4601244146334610
S214001840386802958DF804608DF80C608DF80D40B0
S2140018508DF80E6001F08AFE22460546314638684D
S21400186002F010F935B1FFF789FFFFF7B1FF04B0BA
S214001870BDE8F081064B3B61F9E700BF700600202B
S214001880741D0020B02100207C0600207C8D000006
S214001890F919000002282DE9F0411FD002D80128CE
S2140018A007D0FEE7032800F09C80FF2800F0998010
S2140018B0F7E74D4C237B980707D5FFF733FBFFF779
S2140018C08DFB237B6FF341032373237B990701D49E
S2140018D0DA0764D4BDE8F041FFF780BB4B784C686C
S2140018E0DB077ED5227802F00F07032F59D0052F8D
S2140018F077D13E498B7B03F00103B3EBD21F04F193
S21400190008004CD10622083107F015F98046002859
S21400191045D1FFF707FBFFF7F1FA354D414606467E
S2140019205C22284607F0FFF8AB7E2F8343F02003A7
S214001930AB76627E237E43EA0223AB84627F237FFC
S21400194043EA0223EB8494F82330C3F3040385F8B8
S2140019504F3094F82330C3F3421385F8503004F127
S2140019601E001B232B85FEF755FFD4F80E30E27CB5
S214001970EB60A37C2E6043EA0223227D607D43EA6F
S21400198002432B61012795F84F30AB722F75E18A21
S2140019903944FEF72BFFFFF71BFF164B1F70BDE801
S2140019A0F081124DAB7B03F00103B3EBD21F04F1C1
S2140019B00800F4D1062205F1080107F0BCF800285B
S2140019C0EDD1094C286894F839204FF400730232A0
S2140019D004F1380102F02EF8237B43F00203237350
S2140019E0DDE7FFF79FFA75E7D4000020B02100205E
S2140019F070060020CC06002002282DE9F7430F468B
S214001A000BD003D8012800F0B281FEE7032800F0CF
S214001A10B681FF2800F0B381F7E748784E68BB4DE3
S214001A2010F0010461D14FF0FF3140F60300FEF7DD
S214001A305DFE2646AB7EB64C13F0200F12D0696DC5
S214001A406FF34513AB76002900F09F80237895F856
S214001A505820627043F003032370A01C07F058F868
S214001A6000236B65AB48DFF8D082FEF787FEAA7EC0
S214001A702378003018BF012060F34102C2F3001142
S214001A80AA7661F38203C2F3C00262F3C30360F373
S214001A9004132370218840F60200FEF727FE6278C2
S214001AA09B49D8F8000002324FF40073D2B201F01E
S214001AB0C1FFAB7E7C68D90709D56FF30003AB7610
S214001AC000236B60FFF71AFA2860FEF771FE4EB12E
S214001AD0237803F00303022B00F031816DD8012B2D
S214001AE000F02C8103B0BDE8F083318840F6030097
S214001AF0FEF7FCFD3378A97E96F80080C3F300134A
S214001B0063F38201A976C8F3C003C1F300118B42C8
S214001B1006D108F00303022B05D019D8012B31D0CB
S214001B200026344615E0A146767896B17A48848A2F
S214001B30FEF724FE201A80B2B9F1000F04D0022866
S214001B4086BF023880B2002086428CBF0024012463
S214001B502646AB7EC8F38008C3F3C002904507D084
S214001B6082F0010262F3C303DBB243F02003AB76DC
S214001B70002C3FF45FAFAB7E81F0010161F30413EC
S214001B80AB7657E74FF00009CEE795F82830614866
S214001B90A21C0DF10701FFF7B7F8C0B258B19DF8C7
S214001BA00730002B0CBF012202222378607062F3FC
S214001BB00103237056E70122F7E7A378022B65D0CE
S214001BC011D8002B4DD0012B38D0544A127822B1B0
S214001BD0162B7FD0182B00F08C80514807220270FD
S214001BE04370022127E00C2B18D0142B56D0082B5C
S214001BF0EBD1B8F8201054F8035FC8B205EA00022B
S214001C00474801F47F41044642EA0105092104F8E9
S214001C10011B0023C0F8015063600CE040484FF001
S214001C20FF32037001234370827003710222002387
S214001C30C27043710621FEF7AFFD53E7617A237A3F
S214001C40384A43EA012393801346374943F8061B74
S214001C5054F8031FC2F80610A2889A80A2799A71D7
S214001C6040E7627B237B2F4943EA02238B800B46A7
S214001C702E4A43F8062B54F8032FC1F80620626854
S214001C805A6022891A81A27A9A722BE72A89254BF2
S214001C9005329A80264A1A60E278E0E7B4F8053002
S214001CA0B4F803201E48DB08934228BF13462B8552
S214001CB0152300216FF004046FF02702037007233A
S214001CC0817081714470C27003714471C271037275
S214001CD00921B0E72279E3781148134003F00303A3
S214001CE0022B18BF01231722027043708370032152
S214001CF0A1E76279A1790B4B42EA01229A800D4A4C
S214001D001A60D4F80320C3F80620EBE6700600201D
S214001D10C8250020581C0020401B0020701D0020F5
S214001D20881D0020741D0020A1120000B5120000BE
S214001D30911D0000E5120000B02100200026124888
S214001D40818AFEF71BFD081AA51C80B2647826B1AE
S214001D50022886BF023880B20020A3B283423FF634
S214001D60C1AE2A4631460848FEF763FFBAE6074B7F
S214001D709B7E9A073FF5B6AE5B073FF5B3AEFFF71F
S214001D80FDFCFFF725FDADE6401B00207006002099
S214001D9008B5024B9879FFF7BFFC00BF741D002002
S214001DA02DE9F04F01288DB040F065818A88002A21
S214001DB000F08481B14E96F80090B9F1000F00F063
S214001DC07F81AF4B1C7898465CB9AE48009005788A
S214001DD03DB9AD4D28681718B7F5806F05D9822430
S214001DE01C7020460DB0BDE8F08FDFF8C0B2096861
S214001DF0584406F08DFEB9F1020F2F603DD0032F38
S214001E00EFD9A24F3846FEF7EBFD3B78DBF8002013
S214001E10012B9F4B6BD19A426BD1BB68DB0371D50C
S214001E2002233370FFF756FC9A4B1A68A2F17E63C2
S214001E30A3F58433B3F5104F0BD2126BA2F17E6379
S214001E40A3F58433B3F5104F03D2936805A9002099
S214001E509847914B0598914F1860914B00EA0702FE
S214001E604FF400611A60FEF775FD00283AD1FEF7C0
S214001E702BFD40BB3378022BB3D18A4A8A4F1078A9
S214001E8039682B6810F0F70F914640F0C9808248F9
S214001E9006681E4403F0030A0E44814B0193A6EB2A
S214001EA00A0626F4FF66186826F0070686422CD92E
S214001EB0311A00F50060FEF74DFD019B20B3852426
S214001EC088F800408DE74FF40061D0F83490FEF7B4
S214001ED041FD38B94FF4006109EA0700FEF73AFD04
S214001EE00028C7D0852388F800301C4679E79A4238
S214001EF008D0842388F8003098F80030002B3FF490
S214001F0070AFF0E78623F5E71E6029683868A1EB16
S214001F100A01FEF7CBF92B685B49A3EB0A023B6884
S214001F200646134461483B60FFF798F8002EC6D17A
S214001F3099F80030002B7FF454AF3B687F2B7FF777
S214001F4050AF03A905A8FEF787F910B9059B89F8D5
S214001F50003099F8003013F0F70F3FF442AFDFF887
S214001F6034912A68514904A806F0D2FDD9F8001029
S214001F703B68A1F17E62A2F58432B2F5104F9ED284
S214001F80096BA1F17E62A2F58432B2F5104F96D2AB
S214001F90CE68464A00210846B04700288FD13E68E2
S214001FA02F6801903A460BEB060004A906F0B0FD38
S214001FB03E443B4A019B2E603D4E13603D4B736092
S214001FC0D9F80020A2F17E63A3F58433B3F5104F51
S214001FD0BFF475AF936A38484FF48051984700288D
S214001FE07FF46DAFD9F800102B68A1F17E62A2F5E0
S214001FF08432B2F5104F3BD2CF6A2C4A2E48314677
S214002000B84706462A6820492848FFF727F840F2CE
S21400201003239E421ED040F201239E4226D1E0E6D4
S2140020201C4A194439601168A1F17E62A2F5843217
S214002030B2F5104F12D2CE6A1C4A1D491E48B04750
S21400204006462A6810491948FFF708F840F20323A5
S2140020509E4206D1009A01231370C2E640F2022681
S214002060EFE740F201239E423FF462AF802427E769
S21400207040F20226C6E70024B3E600BF260B002087
S214002080250B0020240B0020200B00209C010020A4
S214002090EB17A6032808E10FBC23002000F8FFFF7B
S2140020A0AC210020780100202C0B00202007002007
S2140020B0300B002075100000400B00200D2490E629
S2140020C081248EE6F8B504287BD8DFE800F00B0301
S2140020D012A2A7008026402506230724002900F028
S2140020E0848072E04FF400764FF48075082309244C
S2140020F0F4E7002976D04C4C636A13F0300F61D1B8
S2140021004A4BDB6B636ADD0705D5636A23F0300351
S21400211043F010036362042502230324424E35660F
S214002120434E33449B001F68002FFCD0002A48D043
S2140021303444A4002368002BFCD0022841D1002997
S2140021403FD0394B5A6A12F0010F1A463FD04FF46F
S2140021508062C3F8A82020225A665A6A12F0300F0E
S2140021600CBF4FF440024FF40002D3F8901032EA4E
S2140021700101FAD1520201D5D3F8A0302A4E01222D
S21400218000210220D6F89C70FFF79CFFD6F890300E
S214002190726A284B22F0300242F010027262C7F3D5
S2140021A00A07316BFA0903320F2A03EA010328BF34
S2140021B00F223B4343EA0273336335662368002BE2
S2140021C0FCD0F8BD0425022303240021A6E7536AA9
S2140021D0D2F8903003F44003B3F5400FF8D1D2F8AC
S2140021E0A030CBE70826022303240F4901200E6601
S2140021F000FA03F3D1F890001842FBD1002AE0D091
S2140022000123094A03FA04F4D2F890302342FBD1A2
S214002210D7E70125022600232C465FE72026102557
S214002220042305245AE700BF00400E4000300E404D
S2140022308004F21000F8FF0F0048704700F04902D3
S21400224000F00F000138072848D8DFE800F0040F38
S2140022501947232D4735244BD3F8943003F0070352
S214002260023B052B3CD8214AD05C70471E4BD3F866
S214002270803003F00703013B032B33D81C4AF3E7F7
S214002280194BD3F8843003F00703013B032B29D8FE
S214002290184AE9E7144BD3F8883003F00703013BEC
S2140022A0032B1FD8144ADFE70F4B1B6F13F0010FE9
S2140022B014BF0920072070470B4BD3F85C3103F09E
S2140022C03003202B06D0302B06D0102B0CBF072057
S2140022D00120704704207047082070470020704790
S2140022E0052070470120704700400E40CE8B00004E
S2140022F0D48B0000D88B0000D48B0000FEE70000D3
S2140023000D4AD2F8943003F00703023B032B0ED895
S214002310DFE803F0020F0F0B0848D2F80031C3F3D2
S21400232004230133B0FBF3F070470548F5E7054892
S214002330F3E74FF40040F0E700400E4000F049029B
S21400234060F59000C0EA2101154B1B685B0670B56E
S21400235004460E4622D4FEF7EDF8124B5B68C3F334
S214002360014398421AD0104BD3F80031FFF7C8FF4C
S214002370022C054602D12146FEF772F9C4F102028C
S21400238010239340074A13610EB1FEF7D3F82CB919
S21400239021462846BDE87040FEF762B970BD00BF12
S2140023A03C300E4000300E4000400E40094B1B688B
S2140023B05B0610B50C460BD420B9074BD3F800319A
S2140023C0FFF79EFF21460020BDE81040FFF7BCBF88
S2140023D010BD00BF3C300E4000400E4008B5FFF771
S2140023E08FFF044BD3F80831C3F308230133B0FB47
S2140023F0F3F008BD00400E401128F8B505460C461F
S21400240011D104290FD100216248624EFFF7CEFF9A
S21400241005F00F05013D072D65D8DFE805F011062C
S21400242060645E7E64890026F2E75B4D013C092C01
S21400243059D8DFE804F0705960585867585858560D
S214002440023C0A2C4FD8DFE804F04340343A4E4EA4
S2140024504E4E4E0646000320052401221146FFF785
S21400246031FE4E4D4B482F6C41F671332B640021E4
S214002470FEF7D4F80FB100232B640EB1FEF75AF81E
S214002480474B5C67FFF7AAFF0446FFF739FFFEF7E6
S214002490F5F8FEF74FF8434B59682046C1F3014163
S2140024A0FEF7DEF8FEB930460121BDE8F840FFF73A
S2140024B07DBF3D48FEF7E2F802200446CDE73A48E5
S2140024C0FEF7DCF801240320C7E701200324C4E755
S2140024D000200424C1E70724C3E7344DA6E7344DA3
S2140024E0A4E704232B60F8BD012211460020FFF765
S2140024F0E9FD0223F6E7012211461046FFF7E2FD4A
S2140025000123EFE7FFF7FCFEFEF7B8F8294B0122A0
S2140025101A600323E6E70023E4E7072C04D0092C1F
S214002520E1D11F4B012201E01D4B00221A67DAE7BA
S214002530013C072CD7D801A353F824F08F250000C0
S214002540E7240000E724000081250000E7240000BF
S214002550E7240000732500005D25000003221049D3
S214002560D1F85C3123F0300343EA0213C1F85C3142
S214002570B9E7012211460420FFF7A4FD0122EEE789
S214002580012211460220FFF79DFD0222E7E7002206
S214002590E5E700BF00F0490280400E4000000E4014
S2140025A000400E4000300E400148E80188400E40D2
S2140025B084400E400816C84338B5C0F30323013BD9
S2140025C004460D46092B1AD8DFE803F031211A1904
S2140025D0052427192A2E174B0022C4F3043442B1CF
S2140025E01548D0F84411C90703D4D0F840110A4260
S2140025F0FBD103F1047304EBC3039B001D6038BDDD
S214002600FFF7ECFEFEF73AF800220C4BE5E7002257
S2140026100B4BE2E701220B4BDFE710220A4BDCE70D
S2140026204FF48032094BD8E70022094BD5E7002249
S214002630014BD2E7B0400E4000400E40B8400E407E
S214002640C0400E40E0400E40E8400E40F0400E40D5
S21400265050410E402DE9F84F404E414D96F800A0EF
S214002660814688461746BAF1000F39D1FEF704F9BD
S2140026703C4CA0F580502060FEF7FEF8A0F5006008
S214002680606001213848FFF797FF21680820043171
S214002690FDF7CAFD23681B68834208BF236861688C
S2140026A008BFD3F804B001F104014FF008000CBFD6
S2140026B04FF0010AD346FDF7B7FD63681B688342F7
S2140026C005D163685B685B4506D8002305E0BAF170
S2140026D0000FFAD1FF2300E001232B700123337093
S2140026E095F900305A1C28D01E4ADFF880A052F810
S2140026F023600C3635464FF6FF7BC5F30A030833D6
S214002700B3F5006F19D2AB885B4516D0A879291DA2
S2140027100430FDF789FD2B68EC888342E4B202D1D1
S214002720AB884B450CD0033404F4FE7408342544BF
S21400273086EA050313EA0A0FDFD0002038700AE0A5
S2140027403B78A342F9D3224605F10801404606F03D
S214002750DFF93C700120BDE8F88F00BFC0230020E1
S21400276010000020E406002000650A0000F8FFFFC5
S2140027702DE98048A14B5B68ADB013F4806F24AFA1
S21400278018D14FF0005300221A603846FEF728F999
S214002790FEF79AF8A8B1446BFEF79CFF269B5E07EF
S2140027A026D5FEF791F8FEF70BF90446FEF704FE71
S2140027B03CB134E04FF000531A68022AE1D10022FF
S2140027C01A608F4B8F4E01225A64F36C1B0E37D162
S2140027D08D498E484AF6E8520A60026842F00402C2
S2140027E002600B608A4A136843F40053136029E0C2
S2140027F014B9FEF7E1FDE4E7FEF73EF88442F8D2AE
S214002800FEF73AF804F140038342F2D82046FEF77A
S2140028103BF80028EDD063696BB9FEF7CDFDFEF7F7
S21400282053F80446FEF750F87A4B986023689D46A6
S21400283063689847C5E79DF89030012BEDD1B0E767
S214002840012BCFD0744A136A23F4441343F488133D
S2140028501362A2F58042136843F4807313606F4BD3
S21400286002229A639A6B02F00F02022A40F0E88076
S214002870DA6C22F0405222F0010242F00102DA64E1
S214002880D3F8EC2042F44072C3F8EC20644A0F21DF
S2140028901180DA6E42F08072DA66624B186800B118
S2140028A00420FEF7E3FC604B5C4DC8221A805F4BA9
S2140028B0A0220F2000241A80FDF788FD5C4BAB6534
S2140028C0CDE91C4424947C60D6F86831C3F3072213
S2140028D0DBB226921E93EB6CC3F3017A2246534674
S2140028E039461CA8FDF7DAFDD5F8EC30C3F301290C
S2140028F022464B4625A91DA8FDF7D0FDDDF898C059
S2140029001E9A1C9D2498DDF87480ACEB02014FF4EF
S21400291016735943B1FBF3F32146259CD2184FF4A6
S214002920167BA0EB050328BF01210BFB03F3B3FBCB
S214002930FBF3ED18A4EB08032CBF4FF0010E4FF08D
S214002940000E0BFB03F3B3FBFBF318EB03082CBFE3
S21400295001230023944573D3002971D144456FD3D6
S214002960002B6DD1A8426BD3BEF1000F68D12B4C63
S214002970E36D23F4FE4323F0020343EA0223E365F8
S2140029805046FDF7F3FC00285AD001214846FDF7D3
S214002990EDFC002854D0636E454538BF4546E72D0C
S2140029A023F4FF7328BFE72523F0010343EA45031A
S2140029B06366E36B43F48063E3634AF6E853606B55
S2140029C06363214623469A6FD507FCD41B6C194ACD
S2140029D013F0030330D0012313608B6FDC07FCD4A5
S2140029E00B6C23F003030B640C498B6F13F001038D
S2140029F0FBD10128136008BF4B631EE000500E4059
S214002A0000000E40B081E00F90310E4098310E402D
S214002A1064310E4000ED00E000400E4000300E40F5
S214002A20EC0600208009C643EE060020F0060020D3
S214002A30372110B7B40AC6431360C94B01221A6087
S214002A40C84CDFF894A3DFF894931120FFF7F8FB47
S214002A50012200210220FFF735FB636A23F0010301
S214002A606362C14B00251D60A36A23F0070343F091
S214002A700603A362BD4BE362226BBD4B02F07F628E
S214002A8013432363BB4B636304211120FFF7B4FC9D
S214002A90DAF80030636A0121484643F04058FFF7F1
S214002AA085FCFDF747FDDAF804104846C1F30141FE
S214002AB0FDF7D6FD1120FDF74BFD0130B9FBF0F018
S214002AC0FDF7DCFD012211460220FFF7FBFAC4F8F1
S214002AD02480D4F8C83043F00103C4F8C830B36A81
S214002AE0A54E2CAA0424B36508A902F8984D3520F3
S214002AF00895FFF7AFFD06238DF81730089B8DF875
S214002B00164013F4803F9D4D0AAC00F05682B36D1C
S214002B108DF82830B36D8DF82930B36D8DF82A30D6
S214002B20B36D8DF82B30B36D8DF82C30B36D63F02C
S214002B303F038DF82D309DF82E3043F001038DF8BD
S214002B402E306C608E4B8F4A9A6000264FF4807150
S214002B50C3E900221E8259618B4A8C4BDFF88082C3
S214002B609A60C3E9002259612022314638461E8207
S214002B7005F0D9FFFC2208238DF89320844A8DF8AF
S214002B80913025928DF8A13040F20172F823ADF80D
S214002B909A208DF8A3307F4A7F4B27924FF0010989
S214002BA0384629938DF8989000F050FC7B487C4B73
S214002BB0036031467B4B436000F0B6FC66A3D3E966
S214002BC00023C8F80000CDE900234FF0FF334FF094
S214002BD0FF3200F0CBFE02224FF0FF31D8F80000A3
S214002BE0714C00F0CDFE714B2493394603F500334B
S214002BF0D8F800002696259300F002FD2146D8F866
S214002C000000267000F0EDFE464630B12146D8F8AA
S214002C10000084F8009000F0E4FE3068DFF8C4A1FD
S214002C2000F064FF2178B5F90020306800F01EFC43
S214002C300146306800F0C0FE6C68002C40F0D7817A
S214002C405046FDF73DFDB37B64F30003B373584B6A
S214002C50584CDFF89481584D4FF0200983F80193C3
S214002C60562283F80493002183F8069304F10A00A1
S214002C7083F8079383F8059383F8089383F81D93E6
S214002C8005F051FF4D484E4B4FF49072C4E90003D7
S214002C90328425234B4A6372012313702372002368
S214002CA02CAAC8F800301B232B801E2302F89B3D5D
S214002CB014A93620FFF7CEFC2CAA394602F89C9DB4
S214002CC03920FFF7C7FC80BB3F4B9DF815201868DE
S214002CD01B7924903B71002A00F092811B2A28BFA2
S214002CE01B22531D8DF8143014A9531C0DF19500AA
S214002CF08DF8933005F00CFF1CA8FDF7E1FC334A75
S214002D009DF814301288FA522CA99A1C51FA82F2B5
S214002D10002102F8201C1C98BDF8741042F81F0C05
S214002D20093322F81B1C8DF814302CAA202302F835
S214002D309D3D1CA93A20FFF78DFC48B9244B1A8804
S214002D409B788DF872300323ADF870208DF8133021
S214002D50204B4BE0AFF30080083540140000000025
S214002D609407C64300400E40A004C8432000050058
S214002D7007450BD047A002000050084088010020FD
S214002D80581C0020701C0020581B0020401B0020F0
S214002D90EC8B0000DC8B0000308C0000E021002073
S214002DA0210E0000D4210020140000203C009400D6
S214002DB000E100E0D40000207A010020D6BE898E13
S214002DC055555500701D0020E48C0000F48C000062
S214002DD0F78C0000D006002000300E4000F04902BC
S214002DE0B0210020B8210020AC030020B04800220B
S214002DF04FF00209C3E90022AE4B036080F804904E
S214002E00FDF702FAAC48AD4B036080F8049010233F
S214002E100372FDF789FEAA48AA4B0360AA4B80F806
S214002E200490C36080F80890A0F81090CDE90039AF
S214002E304B4690E806001430FDF7C2F99DF81510D1
S214002E40002900F0EE8014A8FDF798FE9F48A04BDE
S214002E5003604FF0100980F80490FDF7D5F99D48FF
S214002E609D4A9E4B03604FF6FE7B0823C260A0F887
S214002E7010B080F8049003720393FDF755FE98484F
S214002E80984A02600C220272974AC260A0F810B0FC
S214002E9080F80490FDF748FE9448954A039B02602C
S214002EA04FF0020B934A80F80490C260038280F8C9
S214002EB008B0FDF739FE9048904B0360904BC36016
S214002EC080F804900123038280F808B0FDF72CFEFA
S214002ED08C488D4B03608D4BC3604FF6FE730382A8
S214002EE080F8049080F808B0FDF71EFE8848894BED
S214002EF00360894BC3604FF6FE73038280F804902C
S214002F0080F808B0FDF710FE844B854A1A604FF62D
S214002F10FF729A809DF81420202A05D8931D6374AA
S214002F203946804805F0F4FD9DF81320202A06D87F
S214002F30931D84F839301CA97B4805F0E9FDFDF7A0
S214002F40F1FF237BB27B43F001032373237C02F063
S214002F50010203F0F00362F386132374637C0BB95B
S214002F6006236374714BBAF80410B068C4F81200F4
S214002F70998094F83830042161F3030362F38613D2
S214002F8084F8383094F8393013B9062384F8393089
S214002F90674BB068BAF80420C4F83A009A80FEF787
S214002FA01DF8644C644B1B78002B7BD1634A136975
S214002FB023F00403136130BFF4E70DF11702214636
S214002FC02C20FFF747FB00283FF4BCAD0DF116029E
S214002FD007A93C20FFF73EFB9DF82E3020B19DF858
S214002FE01C2062F30003AAE560F30003A7E520684F
S214002FF0B060A288A3798AF80630AAF8042026E6EC
S2140030000E238DF814300A238DF893304C4B1A6833
S214003010CDF895205A681B7ACDF899208DF89D300A
S2140030206AE6092146480FE7EFF3108672B60023DA
S2140030301A460DF119014348FDF766FE3046FEF7C5
S2140030402BF99DF8193013B10023C8F80030D8F8D2
S2140030500020EFF3108672B6C2F501739BB22244CD
S2140030600DF119013748FDF74FFE03463046FEF7CF
S21400307013F9D8F8000018440328C8F8000011D93E
S214003080B4F8009009F1040398420BD307D860887F
S21400309004284FF0000757D0062800F0C58100230B
S2140030A0C8F800302748FDF769FB0028BCD17DE74B
S2140030B07C230020FB8C000010050020FE8C000006
S2140030C0F4060020018D0000C28B00009C23002027
S2140030D0048D000068050020FD130000158D00001B
S2140030E0C0050020268D0000A11D00000804002059
S2140030F0378D0000748C000018060020488D0000F4
S2140031007B8D000060040020598D0000390A000005
S214003110B00300206A8D00005D0D0000D806002078
S214003120D0060020EC00002014010020E60000205D
S2140031300E010020A8010020CC06002000ED00E0D3
S214003140EA8C0000401B002022796F8009F1FF33D3
S214003150082A9BB200F0DF801BD8042AB74E39D06D
S214003160062A4ED0022A1AD1022B40F05981B4F812
S21400317005700022B7F5007F28BF4FF400770323C1
S214003180114602203370A6F80170FEF701F92F8071
S21400319085E7102A00F0F48003D80A2A70D00622A9
S2140031A094E0122A00F09B80522AF8D1B4F8050069
S2140031B0FDF752FC00283FF472AF037B5B077FF5F8
S2140031C06EAFA9F1030292B29D49B4F80500FDF76F
S2140031D091FC64E7042B79D1B4F80570B8B2FDF71A
S2140031E03BFC58B1027A41687780022A14BF02235A
S2140031F0012305203070737003205FE06F800A2281
S21400320064E0DFF840B2B4F80500B4F80710CDF873
S21400321040B04FF00203A9F107028DF8443092B295
S2140032200BF102030093019210AB0CCBFDF7B6FD39
S2140032304FF6FF7A5045814604D16368C3F30F23E7
S2140032406B80DCE7CDE900774FF002038DF8343071
S214003250CDF830B001300CAB0CCB514680B2FDF748
S2140032609DFD50451CBF00F1FF3080B20723337030
S214003270A6F80190A6F803000022114604201DE0DF
S214003280022B40F0CD80B4F80500FDF7E5FB0028E2
S2140032903DD0037B990714D52B882CAA013B22F836
S2140032A08C3D10A9B4F80500FDF7FEFB024648B9B0
S2140032B0624BBDF824200B2119701099FEF768F8B0
S2140032C0EDE602226368C3F30F236B805B4B207925
S2140032D06988587001261E7059801A71CCE7B4F8B8
S2140032E00500FDF7B9FB90B1037B1A0711D5A9F1CC
S2140032F0030292B25249B4F80500FDF7FBFB024602
S2140033000028DFD14D4B132119700146D6E7012264
S214003310D8E70322D6E7A9F1050B1FFA8BFBBBF112
S214003320020F02D0BBF1100F7CD1464BB4F805005B
S214003330B4F8071010930023CDE900338DF844B09D
S21400334010AB0CCBFDF72AFD4FF6FF7398420646EE
S2140033503FF473AF2B882CAA043B22F8963D09A9AC
S214003360FDF7A2FB024608B16E80AFE7334BBDF80F
S2140033701A205E8009211970911C597009993BE743
S214003380A9F1050B1FFA8BFBBBF1020F02D0BBF1B4
S214003390100F47D10027B4F80500B4F80710DFF87F
S2140033A0A4A0CDF840A0CDE900775FFA8BFB8DF89E
S2140033B044B010AB0CCBFDF7F1FC4FF6FF79484557
S2140033C006463FF43AAFCDE90077CDF838A08DF841
S2140033D03CB001300EAB0CCB494680B2FDF7DEFCAC
S2140033E02B882CAA4845A3F10603074622F8963DEB
S2140033F018BF00F1FF3709A9304618BFBFB2FDF766
S21400340053FB02460028AFD10C4BBDF81A205E8055
S21400341011211970111D59709F80099905204DE7DB
S214003420042253E7024651E7074B109310A90223E4
S214003430CDE912771193FDF783FF30E67E01002079
S214003440AF010020B10100201100002038B504466D
S21400345000F0DCFA0FCC044D0FC594E80F0085E8A9
S2140034600F00002038BD00BFC826002047F6FF73B7
S2140034709A4270B552D0022952D82A4B13F831001E
S21400348001281D464FEAC1010CD10B44D8780138FB
S21400349000B220B1596831F910109142F7DC0130C2
S2140034A0C0B270BD0B4458680028FAD0B0F900408E
S2140034B0944204DBB0F902409442B8BF1446294453
S2140034C028224978A4F1C80393FBF2F35B424A1E14
S2140034D01BB29342A8BF13464FF47A7600EBC3059F
S2140034E00133EA88AD681BB214FB025222EAE2728C
S2140034F08B4202F5FA72B2FBF6F204DA00EBC30571
S214003500AD889542EAD200EBC30333F8040C904230
S21400351028BF1046002808BF0120C1E7FF20C0E7EB
S2140035200020BEE7C826002070B50E46044678B1D7
S214003530084D2B7863B9084B186000F03BF831460D
S214003540204600F027F8031C18BF01232B7070BD1F
S2140035500020FCE7EC260020E8260020084611465E
S21400356000F03CB800B10C3003F03CBE00B10C30AB
S21400357000F00ABA7047431E012B03D9031F5842B6
S214003580584170470120704708B502F0EBFF01284C
S214003590FBD108BD38B504460D46002100F00AFAF6
S2140035A02946204603F0A8FC00280CBF2046002031
S2140035B038BD000010B5044602F08CFF44B1054A41
S2140035C0D4F88030002B08BF1346034A136010BDA2
S2140035D0636FFFDE753500001C00002010B50C463A
S2140035E002F09AFF1CB1BDE81040FFF7CDBF10BD3A
S2140035F000B10C3003F002B900B10C3003F016B97C
S21400360000B10C3003F0DABCC36E2DE9F74F044668
S214003610884613B103898B425AD0D4F86890B9F122
S214003620000F59D0D9F80830002B55D0D9F80C30F7
S214003630002B51D00027A4F10C03D4F87CB00093E3
S214003640BA463E4647F6FF73D9F80C20524502D8D4
S2140036507EBB01203DE0D9F80850182202FB0A552F
S214003660EA89424520D82A8A42451DD3B5F9122058
S214003670BBF1000F0AD0B4F9F610914208DC2E46D2
S2140036800023324619462046D84715E09A420ED007
S21400369094F8A81000980193FFF7E8FE019B0746F0
S2140036A02279BA422E4604D90AF1010ACCE7FF274E
S2140036B0F6E7BBF1000FE3D104F1B803324641460A
S2140036C0204603F060F9A4F80880E66684F8B47033
S2140036D0002003B0BDE8F08F0320FAE72DE9F04F95
S2140036E0544DDFF85C8185B004468A4691468DF8D5
S2140036F00F3003F06FFE2E8803F08AFE019588B126
S2140037000023C8F8003003F07BFEE36ED8F80020F4
S21400371093420DD163B156450AD10025284605B01F
S214003720BDE8F08FB9F1000FEFD0C8F80000ECE765
S21400373002F018FF012804D0012002F0EDFEFFF78A
S21400374023FF3D4802900368D4E91A12002B62D08A
S2140037508B424CD1D8F80000002848D0904246D181
S214003760B6EB0A064FF0000718BF01263D46D4F810
S2140037707CB0BBF1000F55D1217994F8B4309DF898
S2140037800F20994228BF1946204603F0ACF8BDB971
S214003790029AA36E1360E36EC8F80030B9F1000F0A
S2140037A002D10EB9002FB8D0019BB9F1000F14BF9B
S2140037B0494639462046C3F800A003F015F90546E9
S2140037C0B9F1000F01D1002FA8D0B5FA85F033214A
S2140037D0400900F073F99DF80F10204603F000FB37
S2140037E0164BE16E1B68A4F10C00984796E71D681F
S2140037F08DB1086885420ED1D8F80010126811B154
S214003800096891420AD05968204603F0DDFA01277C
S21400381005460026ABE712680968F5E7002601278B
S2140038203546A4E700220DF10F0311462046D8477F
S214003830ADE700BFF0260020F42600201C00002084
S214003840F8260020F8B505460E46FDF7F1FC314691
S21400385007462846FFF7D8FE044630B90346024618
S21400386031462846FFF73AFF04463846FDF714FD72
S2140038702046F8BDF8B50D1C18BF01250E460746B4
S2140038801F21284600F01AF90024304600F0A4F95B
S2140038901F21284687F8C440C7E91A6400F00EF9CD
S2140038A0F1684FF6FF721820E3B28B420BD3154631
S2140038B00A4A002313600A4A294638461360FFF76F
S2140038C0C1FF2846F8BDB56800FB0353DD89954265
S2140038D002D2002DECD02A460134E5E7F42600207B
S2140038E0F82600200089704738B50A780546104645
S2140038F00C46FFF740FE88B149780846FFF73BFEC6
S21400390060B10A43520709D402F02CFE430707D4DD
S21400391021462846BDE8384002F0A2BF012038BD47
S2140039200220FCE700B10C30FFF7DEBF38B50546D5
S21400393008780C46FFF71FFE80B14A781046FFF75E
S2140039401AFE58B1042A09D002F00CFE830707D4E9
S21400395021462846BDE8384002F090BF012038BD19
S2140039600220FCE700B10C30FFF7E0BF30B4DDE921
S214003970024500B10C30CDE9024530BC02F05ABD1C
S21400398000B10C3002F0AABE70B504460D461646CD
S21400399002F0E8FD01280BD129462046FFF752FF2A
S2140039A038B9324629462046BDE8704002F00ABEC5
S2140039B0022070BD03F034BD38B5044600200D4625
S2140039C000F008F94CB1D4F8883043B9294604F120
S2140039D00C00BDE8384002F0A5BFE36FFFDE022012
S2140039E038BD38B5044648880D4600F0F3F84CB1AB
S2140039F0D4F8883043B9294604F10C00BDE83840B5
S214003A0002F04CBFE36FFFDE022038BD00F0E3B8E3
S214003A1038B505460C46FDF70BFCA9696B690C40EA
S214003A2023436B61FDF738FC00200CB9002138BD3C
S214003A308021FCE700B10C3003F01DB900B10C305A
S214003A4003F033B907B502AA4FF4007322F8023D1B
S214003A500749FFF7F3FFBDF80630B3F5007F05D141
S214003A60022808BF002003B05DF804FB0120FAE737
S214003A70FC2600200846114603F022B800B10C30A0
S214003A8003F0E6B838B5154658B100F10C0411B18C
S214003A90204603F021F935B12046BDE8384003F052
S214003AA067B90446F3E738BD024B1960024B18604D
S214003AB0FEE700BF200000202400002008B528B93B
S214003AC0034B1960034B1868FFF7EEFF08BD00BFF5
S214003AD020000020E826002010B5044603F0E6FC8F
S214003AE020460321BDE8104002F000BD00B10C30B6
S214003AF0FFF7F2BF10B54378044643B102F032FD3B
S214003B00012804D12046BDE8104003F0BBBC0220CB
S214003B1010BD00B10C30FFF7EDBF10B5437804467A
S214003B2043B102F01FFD012804D12046BDE8104035
S214003B3003F094BC022010BD00B10C30FFF7EDBFBF
S214003B4070B51E46437805461446D3B191FAA1F1E6
S214003B50080A02F0A1FEE30703D5284603F0AFFCEF
S214003B6068B1AA20214603F0B3FC9DF8102044203B
S214003B7082F00102314603F0D9FC002070BD5520CA
S214003B80F0E70220FAE710B49DF8044001940C30E8
S214003B905DF8044BFFF7D4BF431C08D0044AD2F8A4
S214003BA03C311B0C1B0480B20343C2F83C31704707
S214003BB00040084010B504460846FFF7EDFFE36EE8
S214003BC033B15B6923B14A1C08BF6FF0010119606D
S214003BD0002010BD70477047044B5868431C14BF44
S214003BE0C0F3807001203121FFF768BFB081E00F7D
S214003BF038B50D46044600F025FFAC4042F2107181
S214003C0064094C436423B0FBF3F0B4FBF0F038BD1A
S214003C10034B1A6802609B8883800020704700BFB1
S214003C202E0000200B4B5B88B3F5E16F95BFC823D1
S214003C305A237822502298428CBF172310230B70E9
S214003C40054B1B7823B1904294BF0020012070479B
S214003C50184670472E0000202C00002037B51E4B5B
S214003C601B78032B044634D00DF10701FFF7DAFF6B
S214003C701E2C8CBF19491A499DF807204FF00103E6
S214003C800B608CBF01240024164950B1164B4DF62C
S214003C9001751D60120203F1007342F440421A607F
S214003CA08A810A7C22F00102024322F0020242EAE2
S214003CB04402D3B20D4A0B74127852B923F00403AF
S214003CC043EA800323F008038A89CA8143EAC403CF
S214003CD00B7403B030BD00BF2E000020084108461C
S214003CE008410844D81F002104410844FE2800204B
S214003CF00A4B0B4AD3F88831DB4303F4FE1343F434
S214003D000053B3FA83F3C3F1FF2303F57F03F233C3
S214003D10C3EB4313013B1370704700BF00400E40D7
S214003D2036000020044B00281B780CBF042000201F
S214003D301844C0B2704700BF3600002030B51F23BD
S214003D404FF0FF34B0FBF3F35D1CC3EB4313AC4002
S214003D50C01AE443C0B2E4B201301460086030BD5B
S214003D602DE9F3411646404A404C1268404F144035
S214003D703A78012A054688461AD144EA006488F84B
S214003D800000002333607B88B3F5E16F8CBF5A23B5
S214003D90C82324F47F549D4224F008049ABF200AC6
S214003DA000F47F5043F6C870204302B0BDE8F081AF
S214003DB0304A1278904228BF1546002B14BF0423C1
S214003DC000232B440B70002D2FD12B4B33606A46FB
S214003DD0284601A9FFF7B2FF009A284B01981B78E6
S214003DE098F800C044EA823444F47F5444F008044F
S214003DF044EA0064FBB122493878224BB2FA82F2D8
S214003E00C2F11F02022818BF0B46511C17D09B5C3C
S214003E10D8B2316821F07F433360BCF1000F10D177
S214003E2043F0306343F00403ACE74FF03063013DEA
S214003E303360EDB2CBE7FF204FF0FF32E9E7FF201B
S214003E40E7E7013203D0421ED2B2FD2A06D921F09E
S214003E507F4323F0040343F07F4393E743F00403D8
S214003E6043EA00638EE700BFD81F00213F00C0E092
S214003E702E000020360000200400000BFF28002043
S214003E80B883E00FB083E00FF7B50446C820FFF70D
S214003E90E5FE284B284D1B78032B01D0FF2C03D1C1
S214003EA0FF20287003B0F0BD012B28D1072C204638
S214003EB028BF072001284FF0000301AA0DF10301D7
S214003EC038BF0120FFF74CFF06461C4B1C4C019ADE
S214003ED0C3F8582126609DF803002870FFF7BEFE41
S214003EE0019A130203F4E06343EA1263154A23813E
S214003EF012780AB9666063819DF80300D2E78BB931
S214003F00042C11D81F461846201A01AA0DF10301E9
S214003F10C0B2FFF725FF4FF48003064647B10A4AB2
S214003F201360D2E70023EDE701231F460420EBE7EA
S214003F30064AF5E72E0000202D000020004008402D
S214003F40D81F0021FE2800200841084608410844E2
S214003F5008B500F045FF094B094A002814BF18466B
S214003F601046036823F47F125B0803F4FE13134322
S214003F700360044B4FF00072DA6108BD0041084050
S214003F80184108400040084008B500F029FF4FF4EB
S214003F90001330B1044A1360044B4FF000621A60FD
S214003FA008BD034AF7E700BF004108442040084424
S214003FB018410844014B1868704700BF00290020CC
S214003FC070B505460E46C0B201F00F01FFF710FEB1
S214003FD0C6F303110446C5F30720FFF709FEC6F330
S214003FE003210444C5F30740FFF702FE204470BDDA
S214003FF0434B1B682DE9F047D0F80851DFF82081C5
S214004000404F414E03F4E073A3F5C072002D08BF85
S21400401001258146504250413C4A1168A9423C491C
S21400402010D10C7884420DD199F8A8C098F80040B9
S214004030A44507D199F805C03C78A44502D1B088BC
S214004040BDE8F087B3F5C07F1560087054D099F8C6
S214004050A830022B47D12F4B1B78002B14BFC82447
S21400406096240F212046FFF7C3FDB5FA85F3B0FA74
S21400407080F29B1A002BC4BFC3F10F0AD840264B10
S214004080D8BF4FF00F0A85424FEA0440C3F8BC0081
S21400409003F1806303F1B80340F6FF7238BF0AF1FC
S2140040A0FF3A1A6003F100734FEA0A211960FFF71E
S2140040B087FFB08000F0C6FC04FA0AF44FF4FA73E7
S2140040C05C4341F66A03B0FBF3F0144BB4FBF0F428
S2140040D00A2044431C6099F8A83088F8003099F804
S2140040E005303B70ABE7012B08D00A4B1B78002B42
S2140040F014BFF024B424B4E70024B2E73224B0E7B7
S21400410018600840340000202E0000202800002000
S214004110FC280020FF28002000600840002900201E
S21400412035000020FF280BD00D4B0E4A1A60030402
S214004130000503F4E02300F0F87018430A4B1860FB
S214004140FF290BD0064B40F2F7121A600B0103F45E
S214004150F87301F007011943034B1960704700BF5D
S214004160504108440000F7015041084608B50D4B81
S214004170186800B10C3000F023FE092810D80A4B4E
S21400418001281B5C05D1094B1B78012B14BF0423A7
S214004190442303F00F011809BDE80840FFF7C2BF2B
S2140041A0FA23F6E7E8260020B88D00002E0000204F
S2140041B070B5054600F014FC142200213448354C36
S2140041C0354E04F0B0FC2A78344B022AD3F88831F6
S2140041D02BD113F4001F37D12B682360AB88A38044
S2140041E0C8202B4DFFF73AFDFF232A6833702C4B6F
S2140041F013402278022A2DD12A4A4FF4EE4111604C
S21400420002F100724FF48A41116043F080430121AD
S21400421042F8041C2B60244B03221A60FFF7A6FF0B
S214004220224B01221A70002013E0012A02D113F457
S214004230400FD0E742B91E4A526AD24302F001024A
S21400424003F480031343C6E703232370FF2333706E
S214004250012070BD012A17481749184A4FF0070475
S21400426009D10460062008601549116043F0030375
S2140042704FF44041CCE7046005200860C02111607F
S214004280104A43F08043812143F004031160C1E7E4
S214004290D81F00212E0000202D00002000400E40D8
S2140042A02800C0A02441084458410844FD280020A6
S2140042B0B081E00F0C4108440C4108460841084410
S2140042C0C1004000084108462DE9F84F2F4F304BFB
S2140042D03B6000F0B7FB4FF4FA734FF47A76DFF8E2
S2140042E0C880B0FBF6F56B434FEA032A4FEA136B20
S2140042F01AEB08004FF000094FF00003254A4BEB7D
S214004300090103F05FFEA0F580730446BB6218B98E
S2140043102B21FFF7D3FB012406FB04F200275608E7
S2140043204FEA0528B8193B4648F1000103F04AFE5B
S214004330194B1960194B4FEA046881468A46186083
S214004340240A25B928462B21FFF7B8FB01254FF490
S2140043507A73A8FB036703FB04776C08301947F1F0
S21400436000012A46002303F02DFE0D4B074A196074
S2140043700C4B19F1020618604AF10007B30843EA2D
S2140043808773013B1363BDE8F88F00BF00500840F9
S2140043900011010040420F00102900200C290020C7
S2140043A0082900200429002020A10700044B4FF014
S2140043B00052C3F880211A60024B01225A607047EF
S2140043C000E100E000500840824210B5A3EB010176
S2140043D0A2EB000404D2064B1B6B01331C440139CC
S2140043E0002201F0030342EA0400194610BD00BF94
S2140043F000500840054B0201134401221A604FF496
S214004400807303FA00F0024B586670470051084468
S214004410005008401030034B0001185800F001000F
S214004420704700BF00500840103001F460010001E2
S214004430024B41F003011950704700BF005008407E
S21400444038B5FCF725FF094A094B9D69147C094AD3
S2140044501268E4B20AB19D690134FCF74FFF0022EE
S21400446004F0030342EA0500194638BD292A002055
S21400447000500840880B0A4308B5222000F0F4F9E3
S214004480024B4FF480225A6008BD00BF005008401F
S2140044900A4B2DE930481C68094B1D684443A5FBB0
S2140044A000BC04EB8174002105FB01CC1BF100422B
S2140044B04CF10003E018BDE8308800BF0829002052
S2140044C00429002008B5FFF7BBFFBDE80840FFF74A
S2140044D0DFBF10B50446FFF7B3FF844202D90030B1
S2140044E041F1FF31002201F0030342EA04001946BD
S2140044F0BDE81040FFF7CCBF104B11491B68096B95
S2140045002DE9304820F040424FF000440025E2FB01
S21400451003450C4B1B6803FB02528A4214464FEAC3
S214004520907304D901310133541A03F003034FF09A
S214004530000B4BEA04001946BDE830880C29002021
S21400454000500840102900202DE9F74F1546064672
S2140045508B46FCF76DFE07463046FFF74BFF022DF5
S21400456004D13846FCF798FE012014E0FFF768FFF8
S21400457081460191FFF78CFF012D04BF0BF101036B
S21400458000EB030BA0EB0B00B0F1804F06D23846D1
S214004590FCF782FE002003B0BDE8F08F4549DFF847
S2140045A028C10C6FC96E06F1090224F0E00401EA86
S2140045B00C0C1002E404120621F0E00142F48032F2
S2140045C040F00100E40CC90484420CBF042400241B
S2140045D0C90C944508BF44F00204884208BF44F062
S2140045E0010414F0010A18BF334A584618BFC2F82F
S2140045F000B0FFF781FF022E08BF304A0B4608BF07
S214004600C2F800B08046024601994846FFF7DCFE35
S2140046102B48C9B2815581B1BAF1000F03D0294B9E
S21400462041F61F721A60A30742BF264B264A1A603D
S214004630610742BF1F4B00221A671E4B03EB061290
S2140046401121C2F80C8106F110021201A8EB09082C
S21400465099509A69D96DA2EB0909C84581D84FF4DB
S2140046608072B24011427FF47CAF815D09B11A6658
S21400467077E71DB93046FFF7BDFE88E71A66BAF140
S214004680000F08D00F4B114941F61F7240F201107F
S2140046901A6008601A60A20706D50A4B0B490A4A38
S2140046A00B481A6008601A60630742BF094B012274
S2140046B09A6056E7005008401C2A0020202A002056
S2140046C0242A00206C50084400001F1F6C50084627
S2140046D0000001010040084038B504461546FFF7C3
S2140046E089FE04F10903054A1B0243F00103136720
S2140046F020462A46BDE83840FFF726BF005008404F
S21400470038B504461546FFF775FE04F10903054A59
S2140047101B0243F00113D36620462A46BDE8384004
S214004720FFF712BF0050084038B504461546FFF79D
S21400473061FE0948C36E23F0F85323F4F81304F11E
S214004740090243F4803343EA0263C3662A462046DE
S214004750BDE83840FFF7F8BE0050084038B50446BC
S214004760FFF7B0FE0546FFF7ADFE401BA042FAD3AA
S21400477038BD000038B5344B344C082205461A6064
S21400478001213348FDF718FF324B1D702378013B9B
S214004790012B0CD8237CE07B01229A400C2130238D
S2140047A013FB001303F1884303F520431A602A4BDA
S2140047B000225A67002D40D06368002B33D000F0EB
S2140047C041F9626800EB5203B3FBF2F3013B1B02B4
S2140047D043F0F8032278022A27D0032A29D0012A98
S2140047E02ED143F0020307221C494FF6FF700860E3
S2140047F001F100710B60184B5A6753070CD5237CE8
S214004800E07B01229A400C21302313FB001303F1B6
S2140048108C4303F520431A604FF0804395B1104A4D
S2140048201360002038BDF823D4E743F001030522C7
S214004830DAE743F005030122D6E72A46F823D3E752
S2140048400022D1E7074AEBE7C8400E4618290020A9
S21400485000350A0014290020000008407C000844A7
S2140048609440084694400844044BD3F89430002BF8
S214004870BCBF034BC3F88000704700BF0040084031
S214004880000008404FF0006310B1024A1360704702
S214004890014AFBE7944008469440084408B5064B96
S2140048A006491A684FF00450920004F031F9BDE84A
S2140048B0084000F0DDBB00BF24A50000F08D00001E
S2140048C0C0F30062034B33F8123080B240EA034074
S2140048D0704700BFC28D000007B501A8FCF7ACFC0E
S2140048E0154B164AC3F8442148F2E672C3F838213D
S2140048F04FF40862C3F83421114AC3F8A020114AC5
S2140049004AF63F41916002F580424FF0C0719162D5
S2140049100022C3F8FC200C4AC3F89C2003F18063F5
S214004920A3F6DC737F221A6003F1007323221A6059
S21400493003B05DF804FB00BF00400840C0E65351DA
S2140049407A27000F00300840806D630330B50A4BAD
S2140049500A480B4C0B491A6842B102EA0005A54208
S21400496004BF5D68156008338B42F4D1064BD3F85C
S2140049703C21064B1A6030BD0080E00F0000FFFFB0
S21400498000000840B081E00F004008403C000020D6
S2140049900F4B002210B5C3F88820C3F88C20C3F84C
S2140049A090200C4A012111605A6812F0706FFBD1FA
S2140049B04FF00452DA6702F5FD5201241032C3F8B4
S2140049C080401A66044B1B689847044B1C6010BD59
S2140049D0004008400C400846380000200C400844C0
S2140049E0034BFD22C3F8C8200122C3F8CC20704731
S2140049F000400E4008B5FFF7F3FFFFF7A7FFFFF7ED
S214004A006BFF0C4B03221A600B4B4FF4C012C3F81B
S214004A10942003F1C063943301221A6000F022FB55
S214004A20064B4FF460721A60054A4FF040731360ED
S214004A30936108BDD8600846004008400C40084610
S214004A40F840084608B5FDF75BFC044BD3F8103178
S214004A50C3F308230133B0FBF3F008BD00400E405B
S214004A60F8B5044628B102F02DFD012521684B1C3F
S214004A7000D1F8BD0846C1F30746FFF721FF012E17
S214004A8003460CD9B600A1192246031B9F1852F8FC
S214004A90040F38608A42F9D104363444E6E7090F39
S214004AA0606808340729E1D8DFE801F00A04081135
S214004AB00C0F1417C04303F1806301E01A685040DE
S214004AC01860D3E7FFF74AFED0E705FA00F003F1D7
S214004AD0C063F5E705FA00F0EDE71A6830EA02026F
S214004AE0FBD1C3E708B5FFF7ADFF064A126D0346D4
S214004AF090B228B1C2F30742DB085343B3FBF0F091
S214004B0008BD00BF0060084010B50446FFF7EAFF86
S214004B10C4F30113022B05D0032B09D0012B00D1BF
S214004B20400810BDC4F3C4240134B0FBF4F0F8E729
S214004B308008F6E700F03003202B10B512D1C0F342
S214004B4002441CB1C0F3C423B3FBF4F410F4C01F3A
S214004B5018BF64006408032C28BF0424FFF7D4FFA2
S214004B60604310BDC0F38213012B01D0042B01D18A
S214004B700224F3E70124F1E72DE9F8431A4EDFF8A3
S214004B8070800746B146FCF753FB7568D8F80830C6
S214004B909B09C3F309049B05D9F80430C3F30363E8
S214004BA048BF6FEA8454A3F1020348BF6FEA9454E7
S214004BB0012B24B211D8C5F30365023D012D8CBF2D
S214004BC000250125FCF768FB14F5007F07D10DB121
S214004BD0002FD8D12046BDE8F8830025F2E7034B26
S214004BE0002D08BF1C46F5E70040084000FEFFFF0A
S214004BF000700840024B012218619A60704700BF9F
S214004C0000200840084B10B5D3F8702118B902F000
S214004C100F0010BD22465968D3F87041A242F9D160
S214004C20C1F303630370F2E700400840024B1B68C1
S214004C3003B11847704700BF2C29002030B5164C2A
S214004C40164A2568164C936B246805FB0343146BC1
S214004C50144A154D1268E4024CBF9B189B1A134C5D
S214004C60134AB3F1804F88BF1446124AB3FBF2F2E0
S214004C702A445278D3400B600F49B3FBF1F10D4440
S214004C801203697803EB540342EA8122B3FBF4F380
S214004C90013B1343036030BD30290020003008403C
S214004CA03829002034290020C68D0000E067350032
S214004CB0C0CF6A0040BE4025401B5F1338B505468E
S214004CC00C46FDF7B9FA024618B92B21FEF7F6FE98
S214004CD00122B5FBF2F3642002FB13556843B0FBD8
S214004CE0F2F000B9013B5A08013A01335B08072A83
S214004CF003F1FF330D4903D8072B01D89AB993B9AE
S214004D00002008700A4809780625056009480078DA
S214004D1021B118B108490220086000201B0243EAAE
S214004D200213236038BD0120EBE700BF3D290020B9
S214004D30944008443E2900209440084638B5154D56
S214004D402B780C4623B9144B1B6D03F03F032B70D6
S214004D50124BD3F894305B061AD5114BB0FBF3F028
S214004D6040F24D534343A3F546430C3B584300F5EE
S214004D70C91000F5556018B92B21FEF79FFE0120DB
S214004D802A78084B5343B3FBF0F02060002038BD70
S214004D900220FCE73F290020003008400040084081
S214004DA000366E0180969800014B1868704700BF69
S214004DB038290020014B1868704700BF30290020B2
S214004DC0064B1B68C3F3C20203F0070002B1504350
S214004DD0C3F3821303B15843704700BF3430084012
S214004DE0034BD3F8380180F01000C0F30010704772
S214004DF00040084061B1074BB3FBF1F3984207D37C
S214004E00054BB3FBF1F188428CBF002001207047B0
S214004E100020704700371789007DDAAC2DE9F0478F
S214004E20894614469A46DDE90886FFF7C9FF054617
S214004E3001464846FFF7DEFF20B90E21FEF73EFE8C
S214004E40022033E0FDF7F8F90746002DF8D00028D9
S214004E50F6D015F1FF3318BF0123CAF800301E4BF9
S214004E601B68C3F3130300EB5502B2FBF5F2A2FB7B
S214004E700301C20C194B42EA41321A60184BC3F8C0
S214004E8000900A9B09FB05F11960164B1C60164B37
S214004E909F420DD1154B6C43A1FB0301A4FB0345B8
S214004EA08A09AB09C8F8002033600020BDE8F08707
S214004EB03A460023C804490B03F084F8C8F80000FB
S214004EC0E004630BA0FB050105FB03113A46002333
S214004ED003F078F83060E8E73030084034290020E6
S214004EE0382900203029002000F049020A3BB2DFB2
S214004EF01FB501A902A8FFF7A1FE0B4B43F6FF5210
S214004F001A6003F10073029A1A6003A90198FFF76A
S214004F10D5FE064B4FF4EE621A60039A03F1007357
S214004F201A6005B05DF804FBA4400844304008440D
S214004F3038B50D4B05460C465868C0F30360042888
S214004F40FAD00A28F8D0B0FA80F00F214009FEF710
S214004F50B5FD064B9D631CB103F5805380229A6015
S214004F60BDE83840FFF7C4BF0040084000300840A6
S214004F7038B5154B154C164D4FF40022B0F1804F46
S214004F808CBF20461846134B2A601B68D3B1124BC1
S214004F90124C1B6F00F5F42000F59070B0FBF4F493
S214004FA0033CE4B203F00703A34202D02046FCF71A
S214004FB05DF90B4B1B782BB10A4B4FF4702224047F
S214004FC01A602C6038BD00BFE0673500C0CF6A00AD
S214004FD0944008468009C64300300E4040420F0009
S214004FE03C2900209440084430B5134B044618680A
S214004FF087B000B10C3005AB0293104B0193103B09
S2140050000093D4E9001204ABFFF708FF054668B921
S214005010049A10236AB10A4A13600A490598FFF7F2
S2140050208DFEFFF765FF2068FFF7A2FF284607B052
S21400503030BD054AF0E700BFE82600203C300840B7
S214005040384108465030084038410844034B012296
S2140050501A70034B1868FFF78BBF00BF3C2900206F
S21400506038290020014B40221A60704794400846B9
S21400507070B5104C0FCC86B001AD0FC5B4222368B6
S2140050800D482B60002103F04EFD7C2200210B48CA
S21400509003F049FD0A4B0B4A5A6002F087FD0A4BA3
S2140050A01B782BB101AD0FCD024E0FC62B682360C7
S2140050B006B070BDD81F00214C1F0021D01E002155
S2140050C0EC1F00213F003700FD2800202DE9004896
S2140050D0FCF7AEF8134B1978E9B9134BD3E9002364
S2140050E04FF0000C02F4084B5BEA0C0313D10F4B95
S2140050F010221A600C4BD3E900234FF0000C02F488
S214005100807B5BEA0C030BD1084B20221A60BDE8BB
S2140051100048FCF7C1B8064B10221A600029E9D0F7
S214005120034BF2E751290020482900209440084408
S21400513094400846044B00221A70044B197811B1AB
S2140051401A70FFF7C3BF704752290020512900206C
S2140051500D4A0E4BA020D3F888101060102042F89D
S214005160880C0B484FF0007202600A4889064266B7
S21400517008D502F11F224C321269B2F5817F24BF96
S21400518080229A60704700BF88400844004008406C
S214005190685008440050084008B5FCF749F80A4B28
S2140051A05B68C3F30363032B06D1084A136823F036
S2140051B0F00343F0E0031360054B40F201225A620D
S2140051C0BDE80840FCF768B8004008404C1F0021C6
S2140051D00000084008B5FCF72BF8244B4FF080522F
S2140051E0C3F88020BFF34F8FBFF36F8F4FF48072EA
S2140051F0C3F88020BFF34F8FBFF36F8F0222C3F830
S2140052008020BFF34F8FBFF36F8F1022C3F880202C
S214005210BFF34F8FBFF36F8F2022C3F88020BFF3FA
S2140052204F8FBFF36F8F4FF00052C3F88020BFF34D
S2140052304F8FBFF36F8F8022C3F88020BFF34F8F4E
S214005240BFF36F8F4022C3F88020BFF34F8FBFF3AA
S2140052506F8F4FF00042C3F88020BFF34F8FBFF32D
S2140052606F8FBDE80840FCF717B800BF00E100E00C
S2140052702DE9F84F0A9E0B9F8046894602EA000AEF
S21400528003EA010B3740002E3ED1002908BF012853
S2140052901ED0C0F08581002908BF04284ED1FBF738
S2140052A0C7FFC049D1E9002322F0040444EA0A02F9
S2140052B043EA0B03C1E900235AEA0B0314BFBA4AB8
S2140052C0BA4A4FF480631360BDE8F84FFBF7E4BFBB
S2140052D0FBF7AEFFB349D1E9002322F0010443EA0D
S2140052E00B0344EA0A02C1E900235AEA0B03B04A58
S2140052F04FF0010304D0936302F1C0623C32E2E750
S214005300AC490B609363DFE758EA090316D1012E18
S21400531014D1FBF78DFFA84A136823F001033B4323
S21400532013604FF48063A54A27B1536602F1C0624A
S2140053306832C8E7A2490B605366C5E7FFF74AFF25
S214005340984BD3E9004525EA090242EA0B0924EA0C
S2140053500801994A41EA0A08C3E90089136823EA62
S21400536006063E431660FFF7B1FE08F02A520023F9
S2140053701343944A9449126848F2020308BF4FF454
S2140053800043B00748BF43F4005322EA03070F6008
S21400539001F17C4183EA0200043923EA02038B4AC6
S2140053A008601360002308F40032134308F48020DA
S2140053B04FF0000114BF4FF48053002350EA01025F
S2140053C008F010004FF0000118BF43F4807350EA55
S2140053D0010208F020004FF0000118BF43F400530C
S2140053E050EA010208F040004FF0000118BF43F4F5
S2140053F0007350EA010208F080004FF0000118BF69
S21400540043F4806350EA0102714A7249126818BF79
S21400541043F4006322EA03070F6001F17C4183EA4C
S2140054200200043923EA02036B4A0860136009F09D
S21400543080030022134308F480504FF0000114BF8D
S2140054404FF48023002350EA010208F480304FF026
S214005450000118BF43F4803350EA010208F002004E
S2140054604FF0000118BF43F4801350EA010208F41D
S21400547080104FF0000118BF43F4001350EA0102F9
S21400548008F400204FF0000118BF43F4002350EA50
S214005490010209F004014FF0000018BF43F4003386
S2140054A050EA01024D4A4E4818BF43F48003710784
S2140054B0116848BF43F0040383EA010222F00102A8
S2140054C011400160474913400A60474A1360474A43
S2140054D0474B16F0010F4FF0000009F0010118BF0E
S2140054E0134650EA0102434A3549126818BF43F48E
S2140054F0001322EA03070F6001F17C4183EA0200F1
S214005500043923EA02033C4A086013603B4B2949EE
S2140055101B6808F0010423EA04070F6001F17C41D0
S21400552083EA040024EA03020439354B08601A6053
S21400553008F4001200231343324A334B1B4808F08A
S21400554004044FF0000518BF134654EA050218BFBE
S21400555043F4806332072D4A116848BF43F0004386
S21400556083EA010222F4A022114001602849134078
S2140055700A600D4A1360FBF75BFE264B4FF0805225
S2140055801A604FF480721A6010221A6020221A6085
S2140055904FF000521A6080221A6040221A6093E68A
S2140055A0BDE8F88F48290020EC100846EC100844A7
S2140055B0007008403C700844402900200050084015
S2140055C0685008446C0008406C0008446C000846AC
S2140055D00C6208400C6208440C62084620400840F2
S2140055E0204008441C40084020400846041C500048
S2140055F00418500068500840685008463C70084040
S2140056003C7008460D0A0A09090A0A09EC10084007
S214005610E810084000E100E0024B5868C0F3400084
S214005620704700BF4829002010B50446FFF7E2F98E
S214005630FFF7D0FD04F1280002F0E6F8FFF7A8F91E
S214005640FEF742FEFEF7B2FE02F014FB072104F15D
S214005650800002F06FFB4FF440010020FEF7E4FEEE
S2140056604FF400110120FEF7DFFE02F085FC10B9B2
S2140056701421FEF723FAFFF7E9FC0120BDE81040ED
S214005680FFF778B8044B80221A60044A136823F0A8
S21400569020031360704700BF88400846D01E0021D4
S2140056A02DE9F0471746804689461D469DF820603E
S2140056B09DF824A0FBF7BCFD022F044629D003204A
S2140056C0FEF7A8FE20B12046FBF7E6FD03201BE010
S2140056D0294B2A4ADA661867294B01221A70294B89
S2140056E083F800A0284B1A68BAF1000F0ED042F0DB
S2140056F020021A6049463A460320FFF701F840B9EF
S2140057002046FBF7C9FD0120BDE8F08722F0200205
S214005710EFE7022E2BD00320FEF77CFE18B91B4BBA
S2140057205B685B04CFD51A4B9DF828201A70012EB3
S21400573008D1022F06D0B8F890301D44154B1B68D0
S21400574000261D44FFF7F6FC324629460420FEF7E5
S214005750EBFF30B90320FEF74DFE074B074ADA662B
S214005760B1E70D4B01221A700C4B30221A6020460E
S214005770FBF792FD0020C7E700500840000001013B
S2140057805329002055290020D01E00210040084043
S214005790542900201C2A0020512900209440084645
S2140057A070B50646FBF744FD05460320FEF732FEBD
S2140057B020B91649CC6814F0060404D02846FBF736
S2140057C06BFD032070BD124B1C70FFF75BFF114B87
S2140057D0CB660C677079431E5842584101F0E8FAD0
S2140057E032793168003218BF01220320FEF774FFB9
S2140057F038B9094B802228461A60FBF74DFD012078
S214005800E0E72846FBF748FD2046DBE70050084067
S214005810532900200000010188400844F8B5094DCE
S214005820094E0A4FD5F8882004243460D5F888300D
S2140058305B0300D4F8BD3C600220FEF78FFF3460A7
S214005840F4E700BF00400840884008468840084407
S214005850154B4FF4C06210B51A6008B951B910BDA7
S21400586041B9124A5368C3F30363012BF7D8136890
S2140058709A06F4D40D4C0020FFF7C4F9032801D093
S214005880092806D1D4F88C30DB03F4D4636F0C2BD4
S214005890F1D9FFF7C3FF064B01221A6003F17E43DE
S2140058A07C3304221A60DAE724600844004008408B
S2140058B00C4008462DE978480446FBF7B9FC064636
